:1040000000000320A9390100A7390100A7390100E8
:10401000A7390100A7390100A739010000000000FD
:10402000000000000000000000000000A7390100AF
:10403000A739010000000000A7390100293A01005A
:10404000A7390100A7390100A7390100A7390100EC
:10405000A7390100A7390100A7390100A7390100DC
:10406000A7390100A7390100A739010079E600004E
:1040700091370100973701009D370100A3370100F8
:10408000A9370100AF370100B5370100BB37010088
:10409000C1370100C7370100CD370100D337010018
:1040A000D9370100DF370100E5370100EB370100A8
:1040B000A7390100A7390100A7390100C5AA0000EE
:1040C000C5AA0000C5AA0000C5AA0000C5AA000034
:1040D000A7390100A7390100A7390100A73901005C
:1040E000A7390100A7390100A7390100A73901004C
:1040F00000000000A7390100A7390100A73901001D
:10410000A7390100A7390100A7390100A73901002B
:10411000A7390100A7390100C9B10000D5B10000DD
:10412000D9B10000DDB10000912901009D290100F5
:10413000A1290100A5290100A7390100A739010023
:10414000A7390100A7390100A7390100A7390100EB
:10415000A7390100A7390100A7390100A7390100DB
:10416000A7390100A7390100A7390100A7390100CB
:10417000A7390100A7390100A7390100A7390100BB
:10418000F1F00000F7F00000FBF00000FFF000008D
:10419000A7390100A7390100A7390100A73901009B
:1041A000A7390100A7390100A7390100A73901008B
:1041B000A7390100A7390100A7390100A73901007B
:1041C000A7390100A7390100A7390100A73901006B
:1041D000A7390100A7390100A7390100A73901005B
:1041E000A7390100A7390100A7390100A73901004B
:1041F000A73901000000000029700000A739010064
:10420000A7390100A7390100A7390100A73901002A
:10421000A7390100A7390100A7390100195E000084
:10422000A7390100ED5E0000A7390100A7390100A0
:10423000A7390100A7390100A7390100A7390100FA
:10424000A7390100A7390100A7390100A7390100EA
:10425000A7390100A7390100A7390100A7390100DA
:10426000A739010010B5054C237833B9044B13B1BD
:104270000448AFF300800123237010BD30160020E6
:1042800000000000744B040008B5034B1BB1034948
:104290000348AFF3008008BD000000003416002082
:1042A000744B0400002070477047704772B6084B8B
:1042B000084A1A60BFF34F8F0749084BCA6802F4D7
:1042C000E0621343CB60BFF34F8F00BFFDE700BF39
:1042D000FCFF0220EF6916F000ED00E00400FA0593
:1042E00008B50FF059FE000108BD0000014804F0B8
:1042F0008EBF00BF88170020034B04480422012111
:104300001A7005F095B800BF9E1E00208817002087
:1043100008B50021132010F075F8BDE808400248E8
:10432000012105F085B800BF88170020FFF7F0BF16
:10433000044A054800231370044A0121137005F054
:1043400077B800BF9C1E0020881700209D1E00200B
:1043500010B50E490E4C0F4BC1F89031E6B04FF43A
:10436000CA7201A82CF0EAF9D4E9041220460AF036
:1043700021FA6369216901AA20460AF0C9F90648B1
:10438000012105F055F866B010BD00BFDC17002014
:10439000301E0020A5A555AA88170020103008F06F
:1043A00061BA103008F094BB103008F037BC07B584
:1043B00001228DF8071010300DF1070108F02EFCD6
:1043C00003B05DF804FB000010B5044B044640F850
:1043D000183B0FF00DFA204610BD00BF20C70300A8
:1043E00010B5034B03600446FFF7EEFF204610BDF7
:1043F00038C703000148022105F084B9881700205E
:1044000010B5124C1248F3EE080ABBEE080A04F18C
:10441000300105F051FB18B9BDE81040FFF7EABFC5
:10442000D4ED0D7AD4ED0C6A0948B6EE007AB0EE00
:10443000676AA6EE876A0121E6EEC77A84ED0F6A05
:10444000C4ED107ABDE8104004F0F2BFDC17002084
:104450008817002010B5124C1248F3EE080ABBEE84
:10446000080A04F1340105F027FB18B9BDE8104033
:10447000FFF7C0BFD4ED0D7AD4ED0C6A0948B6EE53
:10448000007AB0EE676AA6EE876A0121E6EEC77A87
:1044900084ED0F6AC4ED107ABDE8104004F0C8BF87
:1044A000DC1700208817002007B5DFED120A12483C
:1044B000B0EE600A01A905F0FFFA30B90E480221FA
:1044C00005F020F903B05DF804FB0C4807F03EFA54
:1044D000DFED0B0A0948C0EE200A9DED010A07F046
:1044E00093FB084B044883ED630A012104F0A0FF0D
:1044F000E8E700BF0000000088170020CC1600206D
:104500000000C842DC1700207FB515490B784BB17D
:10451000144B1A68144B1B689A42144B05DB00229B
:104520000A701A7007B05DF804FB012202A8104956
:104530001A7009F07DFF0F4B01A8196809F04FFFB1
:1045400001AA02A904A809F03DFF04AA0848002115
:1045500009F09AFF06480322002109F0C1FFE1E7B4
:104560009C1E0020141700206C1E00209D1E0020A1
:10457000941E0020C00B002010B5530A14460A46B2
:104580000146044807F0A7FC002814BF20464FF05E
:10459000FF3010BD0C1E002010B5530A14460A4609
:1045A0000146044807F06AFC002814BF20464FF07B
:1045B000FF3010BD0C1E0020037C13F008031EBF4B
:1045C000C36A406A1B1A002BACBF18466FF000404C
:1045D0007047000010B50C4C0C4807F030FC94F804
:1045E0002430DB0709D4002384F824304FF0FF3354
:1045F0002363074B01221A7010BD04F1240009F057
:10460000EDF90028EFD1F4E7701900200C1E00200E
:10461000BC0B002010B50C4C0C49E6B04FF4CA722C
:1046200001A82CF08BF8D4E9041220460AF0C2F855
:104630006369216901AA20460AF06AF80448012149
:1046400004F0F6FE66B010BD301E002014000020FD
:104650008817002000B51348ADF54B7D436901690B
:1046600065AA0AF0B6F84FF4CA720DEB020168466B
:104670002CF064F8C99B0C4A93420ED169460B4852
:1046800064934FF4CA722CF059F80948012104F0E0
:10469000CFFE0DF54B7D5DF804FB05486E2105F05E
:1046A00031F8F6E7301E0020A5A555AADC1700203A
:1046B00088170020037813F008031EBFC369406900
:1046C0001B1A002BACBF18466FF00040704707B5AF
:1046D00001220DF1070107F0FEFF01280CBF9DF834
:1046E00007004FF0FF3003B05DF804FB08B5103051
:1046F000FFF7EDFF08BD000000224FF47A71C0E91A
:10470000012102828274014A026070475C8D0300BD
:10471000F8B5069F15461A4604460E463B4672B14A
:1047200009F0D4F848B104F24446304608F014FACF
:104730002146304607F09DFF58B90020F8BD012200
:1047400009F0C4F802460028EDD13B463146204628
:10475000E6E7034B15B91A68002AEFD11C60EDE7B4
:10476000C822002010B504460FF0ECF9204610BD19
:1047700010B5044604F008FE2046BDE8104004F0E1
:10478000FBBD000070B5114B8AB003AA03F11806F7
:10479000154618685968144603C40833B3422246C4
:1047A000F7D11B88238001A8094909F041FE094877
:1047B000002104F03DFE294601A809F0BDFC014698
:1047C0000448FFF7D5FF0AB070BD00BFA08E0300FC
:1047D000941E00208817002010B50D4A0D4C10685B
:1047E0005168127A86B003AB03C301A80A491A7054
:1047F00009F01EFE2046002104F01AFE03A901A8BC
:1048000009F09AFC01462046FFF7B2FF06B010BD42
:10481000598E030088170020941E002010B50E4A00
:104820000E4C1068516886B003AB03C31189198020
:10483000927A0B499A7001A809F0FAFD20460021EE
:1048400004F0F6FD03A901A809F076FC0146204614
:10485000FFF78EFF06B010BD988703008817002071
:10486000941E002010B5044604F096FD2046BDE8D5
:10487000104004F081BD000038B5274C274D20467C
:10488000002104F0D5FD2649204604F085FD284688
:1048900007F02EF82046022104F0A6FD204621490B
:1048A000FFF7E0FF2049204604F076FD284607F098
:1048B0004DF8DFED1E7A204680EE270A022104F033
:1048C00093FD20461A49FFF7CDFF1A49204604F010
:1048D00063FD194B284693ED630A07F05DF9204606
:1048E000022104F081FD20461449FFF7BBFF144963
:1048F000204604F051FD284607F002F92046022127
:1049000004F072FD20460F49FFF7ACFF0E49204628
:10491000FFF7A8FF38BD00BF88170020CC16002085
:10492000A3870300B2870300B68703000000C842D4
:10493000C89C0300C2870300DC170020FE9C030014
:10494000D6870300E49C030031C1030008B50F487B
:10495000002104F06DFD0E4B1B78062B14D8DFE808
:1049600003F004090B0D0F1311000A490748FFF764
:1049700079FF08BD0849F9E70849F7E70849F5E76D
:104980000849F3E70849F1E70849EFE788170020ED
:104990009E1E0020E2870300E7870300F0870300E4
:1049A000F7870300008803000688030018880300C7
:1049B00010B5044604F008FD2046BDE8104004F0A0
:1049C000DBBC00001FB50A24144800944FF47A732E
:1049D000012203A905F018F828B91048022104F0B3
:1049E00091FE04B010BD039B0C48013B00210393D2
:1049F00004F01EFD0A4B1B682BB90A220021074850
:104A0000FFF7D6FFEDE7039A99689142F5DB5B6902
:104A100053F8223022461969F1E700BF88170020B9
:104A2000981E002010B5044604F0D6FC2046BDE8D0
:104A3000104004F0A1BC000010B51F4C1F492046D7
:104A400004F0AAFC0E200FF0A7FA0A220146204625
:104A5000FFF7E8FF1A49204604F09EFC0F200FF0F4
:104A60009BFA0A2201462046FFF7DCFF1549204643
:104A700004F092FC10200FF08FFA0A220146204623
:104A8000FFF7D0FF1049204604F086FC11200FF0FC
:104A900083FA0A2201462046FFF7C4FF0B4920464D
:104AA00004F07AFC12200FF077FA0A220146204621
:104AB000FFF7B8FF10BD00BF88170020278803004C
:104AC0002D88030033880300398803003F880300E2
:104AD00010B5ADF5915D86B03449354804F05CFC05
:104AE000344807F07CFA102201463148FFF79AFF5C
:104AF00031492F4804F050FC2E4807F06CFA0A2286
:104B000020FA02F12A4804F067FC2C492848FFF7F4
:104B1000A9FE00222A49264804F0E1FE294904465C
:104B20002348FFF79FFE204627492CF007FF044645
:104B3000B8B926491E48FFF795FE4FF480530093FD
:104B4000224620488EAB012103F062FE044660B18C
:104B50001F49174804F020FC15480A222146FFF798
:104B600027FF0DF5915D06B010BD1A49012202A87C
:104B700003F0ACFD044608B11749EAE717490C48B1
:104B8000FFF770FE164803F0C5FD044608B115494D
:104B9000DFE71049024603F099FD134807F04FF98B
:104BA00012490348FFF75EFEDBE700BF45880300BC
:104BB00088170020101E00205D8803006A8803000B
:104BC0006E88030031C10300B1880300B58803007B
:104BD000C3880300EA880300ED88030015890300F9
:104BE0002C890300308903000C1E00205B89030020
:104BF00008B509490948FFF735FE09490948012266
:104C000007F092F920B908490448FFF72BFE08BDC8
:104C1000BDE80840FFF75CBF6C89030088170020DF
:104C2000609D03000C1E00208389030010B504461C
:104C300004F0DAFB2046BDE8104004F09DBB000004
:104C400010B5064C0021204604F0F2FB044806F0A3
:104C50004FFE02212046FFF7E9FF10BD8817002014
:104C6000CC16002010B5084C0021204604F0E0FBD3
:104C7000064806F06BFEDFED067A022180EE270A79
:104C80002046FFF7D3FF10BD88170020CC16002068
:104C90000000C84210B5064C0021204604F0C8FBB5
:104CA000044806F02DFF02212046FFF7BFFF10BD8C
:104CB00088170020CC16002010B5084C0021204693
:104CC00004F0B6FB064B074893ED630A06F064FF59
:104CD00002212046FFF7AAFF10BD00BF8817002061
:104CE000DC170020CC16002038B5074D2B68834216
:104CF000044608D002460021044809F00AF9034896
:104D000009F02AF82C6038BDB0160020A01E002043
:104D100010B5044686B000780091CDE9012300F576
:104D2000FA61A378627804A809F082F90498BDF8C2
:104D300014302060A38006B010BD10B5044686B0C4
:104D40004079029020790190E078009004A809F061
:104D50006FF90498BDF814302060A38006B010BD30
:104D600000B58BB01F4908A809F062FB002202A918
:104D70001D4804F0FEFD05AB00931C49029804ABEE
:104D800003AA2CF04DFD032813D19DF814309DF893
:104D900010209DF80C1008A8FFF7BAFF114808A9C9
:104DA00009F020FB1048012104F042FB0BB05DF834
:104DB00004FB07AB00930E49029804AB06AA2CF043
:104DC0002FFD032809D19DF818309DF81020BDF85B
:104DD0001C1008A8FFF7B1FFE0E70348022104F028
:104DE00091FCE3E7941E002088170020AB890300A4
:104DF000B7890300F8B5264CE37D2DED028B002B1F
:104E000043D094F82830002B3FD09FED228A224EC9
:104E10000A25F0EE488A04F1A007012239463046FF
:104E200002F025FF013D38EE008AF6D1B2EE047A99
:104E3000C8EE077A94ED097A37EE677AF0EE007AD9
:104E4000F0EEC76AF4EEE76AF1EE10FA1DD4D4ED85
:104E50000B7ADFED126A27EE277AC7EE267A94EDF9
:104E6000087A77EE877A94ED157AF4EE477AF1EEC8
:104E700010FAC8BFF0EE477AF5EE407AF1EE10FA7C
:104E800048BFF0EE687AC4ED087ABDEC028BF8BD3D
:104E9000DC17002000000000E14200000000C842D2
:104EA000F8B51B4C2368002B31D000252F46236812
:104EB00058699B68AB4221DD50F82530AE00DBB16C
:104EC000586928B10EF040FE23685B699B595F6109
:104ED00023685B699B59986928B10EF035FE2368F9
:104EE0005B699B599F6123685B69985908B10EF013
:104EF0002BFE23685B699F510135D8E708B10EF09E
:104F000023FE206808B10EF01FFE00232360F8BDC9
:104F1000981E00202DE9F047414E33680BB1FFF792
:104F2000BFFF404918200FF00EFB054630600028F7
:104F300071D03D4C3B49D4F80C310360D4F81031AA
:104F400043600023D4F82801EB60D4F824312B61AE
:104F50006FF060439842A86034BF80004FF0FF308C
:104F60000FF0F3FADFF8BC80686100252F46D4F813
:104F70002831AB421ADD336841461C20D3F8149027
:104F80000FF0E1FA336849F825005B6953F82530E2
:104F9000002B40D0D4F814215A60D4F818219A601C
:104FA000D4F81C210135C3E90327E0E71F4FDFF8E0
:104FB00074A00025D4F82831AB422FDD33685B693B
:104FC00053F82590D9F80C00B84294BF40004FF038
:104FD000FF3051460FF0B9FA3368C9F814005B6925
:104FE0004FEA850853F80890D9F814309BB1D9F8E6
:104FF0000C00B84294BF40004FF0FF3051460FF014
:10500000A4FA3368C9F818005B6953F808309B6943
:105010000BB10135CEE70020BDE8F0870120FBE7AA
:10502000981E002014060400DC170020FCFFFF3F40
:105030004B6870B543608B688360CB68C36001F1D7
:105040001004064600F110050FCC0FC50FCC0FC59C
:1050500023682B60304670BDF8B5047C0646A4B1C9
:105060000D460024571EA7420DDD336830465B69AC
:1050700098470A2807D03A2805D02C2803D005F8ED
:10508000010B0134EFE700232B702046F8BD000030
:1050900030B58BB005460C4601A80E490EF0EDFB6D
:1050A000142204A92846FFF7D7FF00280FDD04A922
:1050B00001A80EF0F5FB01A80EF06AFC84ED000AD1
:1050C000002401A80EF094FB20460BB030BD4FF039
:1050D000FF34F6E731C1030030B58BB005460C460E
:1050E00001A80E490EF0C9FB142204A92846FFF7B7
:1050F000B3FF00280EDD04A901A80EF0D1FB01A822
:105100000EF034FC2060002401A80EF071FB204654
:105110000BB030BD4FF0FF34F6E700BF31C10300E4
:1051200038B50C46037802462146013023B9207871
:10513000B0FA80F0400938BD2A2B10D1154612F87C
:10514000013B2A2BFAD08BB1214601340878002884
:10515000F1D02846FFF7E4FF0028F5D0EBE70A7806
:105160009A4204F10104DDD00020E4E70120E2E7E7
:105170002DE9F043414C236887B0054633B94048D8
:10518000022104F0BFFA07B0BDE8F0830A260096BA
:105190009B683B48012203A904F036FC0028EED0AE
:1051A0002268039B526936486FF040473B4404A98C
:1051B00052F82330DB680096013B002204F024FC07
:1051C0000028DCD02268039B52692D483B4405A986
:1051D00052F823300096DB68012204F015FC002809
:1051E000CDD00021264804F023F92268039BD16822
:1051F000994205DA22480A220021FFF7D9FBC2E7CB
:1052000052693B4452F823301A69049B9A42F1DBFD
:1052100005990B449A42EDDB32461948194F184E56
:10522000DFF86C8004F0D0F8DDF81090DDE904328E
:1052300013444B451CDD3946304604F0ADF8039964
:1052400022686FF0404352690B4452F8233065B135
:105250005B690D4933F8190002F0E2FC0221304687
:1052600004F0C2F809F10109E0E79B694146F1E762
:1052700006490348FFF7F6FA85E700BF981E0020AD
:1052800088170020C38903006418002031C103007F
:10529000701800200120FFF76BBF0020FFF768BFE8
:1052A00037B5164905460122154806F03DFE04466D
:1052B00048B91DB90024204603B030BD1149124839
:1052C000FFF7D0FAF7E71DB110490F48FFF7CAFA08
:1052D00000230B490E4800930122FFF719FA0446F8
:1052E00018B9002DE6D00B49E9E7002DE3D00A49B3
:1052F0000548FFF7B7FA2C46DDE700BF609D0300C5
:105300000C1E00208389030088170020C589030034
:1053100070190020DC890300F88903002DE9F04FA3
:1053200004468FB00020FFF7BBFF074620B90027D7
:1053300038460FB0BDE8F08F01A8FFF7DDF922462F
:10534000844C854940F2012305A807F05FFC01A9C0
:105350002046FFF76DFE237C002BE8D07F4D80496F
:1053600020460DF07FFB7F4920460DF06CFB2B683B
:10537000186829F06FFC41EC100B022120460DF05B
:1053800090FC794920460DF05EFB2B68586829F0A7
:1053900061FC41EC100B022120460DF082FC7349A8
:1053A00020460DF050FB2B680A22D96820460DF0EC
:1053B000A4FB6F4920460DF046FB2B680A22996832
:1053C00020460DF09AFB4FF000082B68DB68434540
:1053D00040F3BB806749DFF8BCA1DFF8BCB108F13E
:1053E000010820460DF02FFB0A22414620460DF011
:1053F00084FB614920460DF026FB2B684FEA8806A6
:10540000043E5B699B59186829F024FC41EC100BA1
:10541000022120460DF045FC584920460DF013FBB3
:105420002B685B699B59586829F014FC41EC100B00
:10543000022120460DF035FC514920460DF003FBBA
:105440002B685B699B59986829F004FC41EC100BB0
:10545000022120460DF025FC444920460DF0F3FAC8
:105460002B685B699B590A22196920460DF045FBA0
:105470003F4920460DF0E7FA2B685B699B590A22E9
:10548000D96820460DF039FB3E4920460DF0EAFA76
:105490004FF000092A6852699259116949451DDD8A
:1054A0005269514632F8190002F0BAFB10EE100AA8
:1054B00029F0D0FB41EC100B022120460DF0EEFB51
:1054C0002A68526992591269013A914503DA59469C
:1054D00020460DF0B8FA09F10109DBE72A49DFF8A7
:1054E000BCA0DFF8B4B020460DF0BCFA2749204636
:1054F0000DF0B8FA4FF000092A6852699259116903
:1055000049451DDD9269514632F8190002F088FBC9
:1055100010EE100A29F09EFB41EC100B02212046F0
:105520000DF0BCFB2A68526992591269013A914503
:1055300003DA594620460DF086FA09F10109DBE746
:10554000114920460DF08EFA3FE7114807F004FBA1
:10555000EEE600BFD81D002070190020981E002024
:105560000C8A03004F8A03005A8A0300638A0300EF
:105570006E8A0300778A03007E8A0300848A030010
:105580008E8A0300968A030031C10300AC8A0300AF
:10559000E81D002064180020C38903007018002053
:1055A0000C4B1B6807B523B90B48022104F0AAF87D
:1055B0000DE00948002201A904F0DBF90198FFF78A
:1055C000ADFE0028F0D00448012103F031FF03B004
:1055D0005DF804FB981E0020881700202DE9F04399
:1055E0009FB0B648002203A904F0C3F90020FFF7DA
:1055F00057FE30B9B148022104F084F81FB0BDE86D
:10560000F083039AAE4C019209A8FFF775F80023C6
:10561000019AAC490DA807F0F9FA09A92046FFF74D
:1056200007FD237C002B00F00281A74EA74CA84D5C
:10563000A4F110072046FFF73DF8002840F3F7805B
:10564000502209A93846FFF707FD0822294609A874
:105650002DF0DCF80028EDD19E499948FFF718FDA0
:10566000013000F0E480502209A99548FFF7F4FCCE
:105670009949062209A82DF0C9F8002840F0D780E2
:1056800096498F48FFF704FD013000F0D08050228A
:1056900009A98B48FFF7E0FC9149082209A82DF0E1
:1056A000B5F8002840F0C380854804A9FFF714FD31
:1056B000013000F0BC80502209A98148FFF7CCFCE2
:1056C0008849062209A82DF0A1F80546002840F0D7
:1056D000AE8085497A48FFF7FFFC013000F0A780D3
:1056E000774C049BAB42A1DD09A950222046FFF76D
:1056F000B3FC7E4909A82CF021F9002896D106A90F
:105700002046FFF7E9FC013090D0069B6F1CBB429E
:105710008CD109A950222046FFF79EFC744909A8A4
:105720002CF00CF9002881D107A92046FFF7B0FC26
:1057300001303FF47BAF502209A92046FFF78CFCD3
:105740006C49072209A82DF061F800287FF46EAF9C
:1057500069492046FFF79CFC01303FF467AF5022B7
:1057600009A92046FFF778FC6449052209A82DF015
:105770004DF800287FF45AAF61492046FFF788FCB6
:1057800001303FF453AF502209A92046FFF764FCD3
:105790005349082209A82DF039F800287FF446AFB4
:1057A00005A92046FFF798FC01303FF43FAF502297
:1057B00009A92046FFF750FC4A49062209A82DF006
:1057C00025F800287FF432AF4E492046FFF784FCCD
:1057D00001303FF42BAF3DB9FFF79CFB00283FF4AD
:1057E00025AF3368049ADA603368079A5B6953F827
:1057F00025301A60059A1A6109A950222046FFF740
:105800002BFC4149152209A82DF000F84FEA850824
:10581000054600287FF40AAFDFF8F490059BAB4201
:105820001FDD08A92046FFF733FC013005D12748CA
:1058300007F092F9DEE63D4653E79DED080A48463B
:1058400002F008FA3368DDED087A5B69FCEEE77A6E
:1058500053F8083017EE902A5B6923F815200135BC
:10586000DCE7502209A92046FFF7F6FB274915225D
:1058700009A82CF0CBFF054600287FF4D7AEDFF84F
:105880009490059BAB4247DD08A92046FFF700FC3A
:105890000130CCD09DED080A484602F0DBF93368B0
:1058A000DDED087A5B69FCEEE77A53F8083017EE15
:1058B000902A9B6923F815200135E2E7881700201C
:1058C000D81D002070190020981E0020E81D00201F
:1058D000C28A0300E8180020CB8A0300EC180020DD
:1058E000D28A0300DB8A030004190020E28A030045
:1058F000A39B0300E78A0300F0180020EF8A03004F
:10590000F4180020F8180020968A0300AC8A0300DF
:105910006418002070180020049BBB428BD10448FF
:1059200007F01AF90348012103F082FD66E600BF83
:10593000E81D00208817002010B590B01F4B2048AC
:10594000029304F0F4F8012804DD1D48022103F05D
:10595000D9FE31E01A4804F0EAF8012804D11848C9
:10596000002202A904F005F80020FFF799FC0028A6
:10597000EBD0029A134C019203A8FEF7BDFE40F251
:105980000123019A104907A807F040F903A920460E
:10599000FFF74EFB237C002BD7D00C494FF4CA7283
:1059A00004F1100007F03AF904F1100007F0D4F800
:1059B0000348012103F03CFD10B010BDF58A03003F
:1059C00088170020D81D002070190020DC17002047
:1059D00030B5E9B0254B2648029304F0A8F8012819
:1059E00004DD2348022103F08DFE3DE0204804F051
:1059F0009EF8012804D11E48002202A903F0B9FF35
:105A00000020FFF74DFC0028EBD0029A194D0192BF
:105A100003A8FEF771FE0023019A174907A807F0B3
:105A2000F5F803A92846FFF703FB2B7C002BD8D001
:105A30004FF4CA7203A905F1100006F04CFE0446AB
:105A400005F1100007F088F8B4F5CA7FC9D1679A4C
:105A50000A4B9A42C5D103A9094822462AF06EFE94
:105A60000348012103F0E4FC69B030BDF58A03006E
:105A700088170020D81D002070190020A5A555AA60
:105A8000DC1700202DE9304800208EB0FFF708FC1D
:105A9000B0B1DFF860B101A8FEF72EFE40F201239D
:105AA000414A424905A807F0B1F801A95846FFF755
:105AB000BFFA9BF8103033B93D493E48FEF7D2FE9D
:105AC0000EB0BDE830883C490C220BF1100007F005
:105AD000A5F83A4904460C220BF1100007F09EF895
:105AE000374904440C220BF1100007F097F83549B0
:105AF00004440C220BF1100007F090F832490444E2
:105B00000C220BF1100007F089F8304904440C22F4
:105B10000BF1100007F082F82D4904440C220BF120
:105B2000100007F07BF82B4904440C220BF1100005
:105B300007F074F8284904440C220BF1100007F018
:105B40006DF8264904440C220BF1100007F066F8AA
:105B5000234904440C220BF1100007F05FF821499F
:105B600004440C220BF1100007F058F81E490444BD
:105B70000C220BF1100007F051F854221B49044489
:105B80000BF1100007F04AF805460BF1100006F083
:105B9000E3FF1749074803F0FFFB06480A22611993
:105BA000FEF706FF8CE700BF018B03007019002091
:105BB000098B0300881700204C180020581800207B
:105BC00064180020701800207C180020881800201D
:105BD00094180020A0180020AC180020B81800204D
:105BE000C4180020D0180020DC1800201419002050
:105BF0001F8B0300D81D00202DE9104800208FB016
:105C0000FFF74EFBA8B1DFF85CB101A8FEF774FD09
:105C10000023414A414905A806F0F8FF01A958466A
:105C2000FFF706FA9BF8103033B93D493D48FEF7BF
:105C300019FE0FB0BDE810883B490C220BF1100093
:105C400006F049FD394904460C220BF1100006F01C
:105C500042FD374904440C220BF1100006F03BFDD5
:105C6000344904440C220BF1100006F034FD324993
:105C700004440C220BF1100006F02DFD2F490444C2
:105C80000C220BF1100006F026FD2D4904440C22D5
:105C90000BF1100006F01FFD2A4904440C220BF101
:105CA000100006F018FD284904440C220BF11000E6
:105CB00006F011FD254904440C220BF1100006F0FA
:105CC0000AFD234904440C220BF1100006F003FDE9
:105CD000204904440C220BF1100006F0FCFC1E4984
:105CE00004440C220BF1100006F0F5FC54221B4971
:105CF00004440BF1100006F0EEFC04440BF110001C
:105D000006F02AFF1649074803F046FB05480A2219
:105D10002146FEF74DFE8CE7018B03007019002031
:105D2000438B0300881700204C18002058180020CF
:105D300064180020701800207C18002088180020AB
:105D400094180020A0180020AC180020B8180020DB
:105D5000C4180020D0180020DC18002014190020DE
:105D6000578B0300D81D002030B59FB004A8FEF764
:105D7000C3FC0020FFF794FA28B90221244803F05D
:105D8000C1FC1FB030BD2248002203A903F0F1FD81
:105D90000028F2D00024039A1E49ADF8444023465F
:105DA00011A88DF8464006F031FF08B96921E5E7F2
:105DB000039A019211A8FEF79FFC2346019A154908
:105DC00015A806F023FF11A904A8FFF731F99DF8E3
:105DD0002030002BEAD00E480D4D214603F028FB61
:105DE00008A8FEF767FC002808A80ADDFEF76FFC8C
:105DF00011A98DF8440028468DF8454003F0C4FAF7
:105E0000EEE706F0A9FE0248012103F011FBB8E716
:105E10008817002070190020F7B52C4B93F82E201E
:105E2000C2F3800201921A6B1107FCD4B3F8403020
:105E3000274A26499BB213600A6B12F00802FBD175
:105E40000198244D0128296819D1234C2368013376
:105E50008B42236011D3214B1A6023688B4203D1FC
:105E60001F4B1B6803B1984723682A68B3EB420FA6
:105E700082BF236803F1FF33236003B0F0BD174CEA
:105E8000226801328A422260F7D3164A1268052A34
:105E900018D1154A0D481768DA1B22EAE272064645
:105EA000D0F830C01CF0080FFAD192B23B44828186
:105EB00040F6FF729342A8BF1346326B1207FCD420
:105EC0009BB2F381044B00201860C6E7001C00431E
:105ED000601600200C000020A4160020A016002050
:105EE0004C16002054160020A8010020F7B52C4BBA
:105EF00093F82E20C2F3800201921A6B1107FCD492
:105F0000B3F84030274A26499BB253600A6B12F01F
:105F10000802FBD10198244D0128696819D1234C4E
:105F2000236801338B42236011D3214B1A6023680D
:105F30008B4203D11F4B1B6803B1984723686A68E3
:105F4000B3EB420F82BF236803F1FF33236003B03A
:105F5000F0BD174C226801328A422260F7D3164AFC
:105F60005268052A18D1154A0D485768DA1B22EAEB
:105F7000E2720646D0F830C01CF0080FFAD192B297
:105F80003B44828140F6FF729342A8BF1346326BB6
:105F90001207FCD49BB2F381044B00201860C6E7C3
:105FA00000200043601600200C000020AC160020EA
:105FB000A81600205016002054160020A80100202A
:105FC000554B984210B5044600F0A080A3F58063BD
:105FD000984203D101210E200EF056FA0023226BC5
:105FE00012F00802FBD1218862F341012180226B6B
:105FF00012F00802FBD149498C4277D1A18862F3A3
:106000000401A180226B12F00802FBD1218862F307
:1060100045112180226B1207FCD4414A1168228865
:1060200061F30A222280226B1007FCD4228842F0FE
:1060300002022280226B1107FCD4E288012161F365
:10604000C402E280226B1207FCD4364A1168A27A9D
:1060500061F30302A272216B11F00801FBD1A27A55
:1060600061F30612A272226B1007FCD4E28842F0A0
:106070000202E280226B1107FCD42B4A1168E27AFB
:1060800061F30502E272226B1207FCD4274A52F830
:106090002310E288052908BF032161F30A22E28068
:1060A000226B1007FCD494F82D2042F0010284F8F2
:1060B0002D20226B1107FCD41D4A32F82320A28127
:1060C000226B1207FCD41B4A32F82330E381134BB6
:1060D0009C4214D1184B4FF40002DA60236B1B076B
:1060E000FCD4237D43F00203237510BD0A4A944279
:1060F00001BFA288012161F30402A28082E7064B5E
:106100009C42EBD10C4B4FF00072E6E701211120CD
:106110000EF0BAF9012362E700200043001C00439F
:10612000C40B0020CC0B0020C80B0020541600200C
:1061300004000020B001002000E100E01B4B984269
:1061400027D11B4B4FF40002C3F88C20BFF34F8FB5
:10615000BFF36F8F036B1907FCD4144B98421FD108
:1061600041F606038380036B1A07FCD44FF4806367
:106170000380036B13F00803FBD1C380036B13F0A0
:106180000803FBD18372036B1B07FCD40523C37286
:106190007047084B9842DDD1054B4FF00072D3E7B2
:1061A000044B9842DFD14FF4C053DBE7001C00439F
:1061B00000E100E000200043043809281AD8DFE895
:1061C00000F025051908191A1C1F21230123104A64
:1061D00001E002230F4A091140F6FE708142A8BF78
:1061E00001460529B8BF052190688007FCD41C33FF
:1061F00042F8231070470323ECE70023064AEAE73E
:106200000123FBE70323F9E70223F7E70023DEE797
:10621000000C0042008001410060014110B50446BD
:1062200001F00BFD014694F90000BDE81040FFF7B6
:10623000C3BF0000000000002DE9F84F3E4CE37D95
:106240002DED028BF0EE408A002B6AD00FF2E009B0
:10625000D9E90089DFF8FCA0DFF8FCB084ED090A79
:1062600064253649364F9FED378ACAF81CB00A2696
:106270000422384601F0FBFCB0EE481AF0EE400A6A
:106280009AED070A01F019FD013E2C498AED070A33
:10629000EED138EEC08AB7EE007AF0EEC87AF4EEAE
:1062A000C77AF1EE10FA3CD917EE900A28F0D2FC2A
:1062B000064618EE900A0F4628F0CCFC42464B46A4
:1062C00028F020FD02460B463046394628F096FF5E
:1062D00038BB94ED0B0A9FED1C7A1C4828EE008A0F
:1062E00094ED080AC8EE077A77EE807A94ED150AE5
:1062F000F4EE407AF1EE10FAC8BFF0EE407AF5EE17
:10630000407A9FED130AF1EE10FA58BFB0EE670A1B
:1063100084ED080AFFF782FF05200DF0DDFB013D4B
:106320009FD1BDEC028BBDE8F88F00BFAFF30080BA
:10633000FCA9F1D24D62503FDC1700207C180020F0
:10634000E1420000CDCCCC3D0000C84288180020BE
:1063500000000000741E0020000080BF10B50C4C2F
:10636000DFED0C0A9FED0C0A0C4804F1240103F048
:10637000A3FB18B9BDE81040FEF73CB894ED090A3C
:10638000FFF75AFFBDE810400448012103F050B860
:10639000DC1700200000FA440000000088170020ED
:1063A00010B51D4CE37D2DED028BB0EE408A5BB342
:1063B00004F59C720023F2EC017AF4EEC87AF1EE57
:1063C00010FA24DD03B394ED156A1448B3EE047A91
:1063D000C6EE076A07EE103A04EB8303B8EEC76A0D
:1063E00093ED4D7A77EEC85A37EEC77AC5EE877AC5
:1063F00066EEE77AE6EE267AB0EE670AC4ED087A32
:10640000FFF70CFF84ED098ABDEC028B10BD013350
:10641000152BD0D1F8E700BFDC170020881800202A
:1064200010B50C4CDFED0C0A9FED0C0A0C4804F182
:10643000240103F041FB18B9BDE81040FDF7DABFB5
:1064400094ED090AFFF7ACFFBDE8104004480121B4
:1064500002F0EEBFDC1700200000FA44000000004C
:10646000881700201F4B1B68DA685B6953F82230DD
:10647000D3E90321914210B503DB1B4B03221A70B1
:1064800010BD1A4A5869146820F811405468986978
:1064900093ED017A4A1C1A6107EE902A144B20F8FA
:1064A0001140D3ED006A134CF8EEE77A04F1C40012
:1064B000A7EEA67AD4ED0D7AF6EE006AB0EE670A82
:1064C000A7EE260AE7EE667A84ED0F0AC4ED107A8D
:1064D000FFF7A4FE94ED100A04F1D000BDE81040CF
:1064E000FFF79CBE981E00209E1E00206016002014
:1064F0005C160020DC1700202DE9F8432DED048BFD
:10650000734D744E192701222946304601F0AFFB26
:10651000012229463046F0EE408A01F0A8FB012214
:106520002946304678EE808A01F0A1FB01222946F7
:10653000304678EE808A01F09AFB38EE800AB5EE9C
:10654000007A20EE070AF0EE007AB4EEE70AF1EEE8
:1065500010FAF0EE479AB0EE679A3BDDF2EE047A5D
:10656000B4EEE70AF1EE10FA34D55B4D594E192717
:1065700001222946304601F07AFB012229463046A5
:10658000F0EE408A01F073FB01222946304678EE96
:10659000808A01F06CFB01222946304678EE808A21
:1065A00001F065FB38EE800A20EE290AB4EEC90A34
:1065B000F1EE10FA4ADDF2EE047AB4EEE70AF1EEFB
:1065C00010FA43D5BDEC048B4448BDE8F8430121E3
:1065D00002F02EBFF1EE0C7A70EE677A404C17EEA7
:1065E000900A28F037FB38A3D3E9002328F08AFB70
:1065F0008046606C894628F02DFB02460B464046DB
:10660000494628F0C9F928F075FE07EE900AF5EE24
:10661000C07AF1EE10FA0DD500236364314894ED91
:10662000110AFFF7FBFD19200DF056FA013F7FF428
:106630006AAF9AE7B1EE047AF4EEC77AF1EE10FA97
:10664000C8BFF0EE477AC4ED117AE7E7F1EE0C7AB5
:1066500070EE677A224C17EE900A28F0FBFA1AA324
:10666000D3E9002328F04EFB8046A06C894628F031
:10667000F1FA02460B464046494628F08DF928F0CB
:1066800039FE07EE900AF5EEC07AF1EE10FA0DD55C
:106690000023A364144894ED120AFFF7BFFD1920EC
:1066A0000DF01AFA013F7FF463AF8BE7B1EE047A85
:1066B000F4EEC77AF1EE10FAC8BFF0EE477AC4EDF7
:1066C000127AE7E7AFF300807B14AE47E17A84BF2C
:1066D00064180020E1420000701800208817002094
:1066E000DC170020C4180020DC1800207FB5064607
:1066F0000C4601A8114915460DF0BFF826B195EDDD
:10670000000A3046FFF78AFD0D4A0E490E4803F095
:1067100016F985ED000A5CB10A26002594F90000FF
:10672000FDF7DEFD013E0544F8D10A2495FBF4F4A3
:1067300001A80DF05DF8204604B070BD31C1030022
:10674000ED420000788B0300881700202DE9F04708
:106750002DED028B544CDFF864A182B081460F46C8
:1067600020465249B0EE608AF0EE408AFEF77AF891
:106770006A4639464846CDED008AFFF7B7FF0A2240
:10678000054601462046FEF713F997F90000FDF78C
:10679000A7FD0A2201462046FEF70AF901AA39465A
:1067A00048468DED018AFFF7A1FF0A220146804687
:1067B0002046FEF7FDF897F90000FDF791FD0A224B
:1067C00001462046FEF7F4F8B0EE680A484601F0AC
:1067D00034FAB0EE480A0646484601F02EFA801B0D
:1067E000DDED006A9DED017A314907EE900A37EE42
:1067F000667AF8EEE77A2046C7EE878AA8EB0508A6
:1068000007EE906AB8EEE78A2A4EA6EEE88AFEF70F
:1068100029F85146204602F0BFFDB0EE680A204636
:106820000221FEF703FA3146204602F0B5FDB0EE34
:10683000480A20460221FEF7F9F9DDED006A9DEDD8
:10684000017AC9ED018A07EE908A37EE667AF8EE92
:10685000E77A89ED028AC7EE878A2046164907EE55
:10686000905AB8EEE78AA6EEE88AFDF7FBFF51469C
:10687000204602F091FDB0EE680A20460221FEF7A4
:10688000D5F93146204602F087FD0221B0EE480AD4
:106890002046FEF7CBF9C7ED018A87ED028A02B0E8
:1068A000BDEC028BBDE8F087881700208D8B0300BC
:1068B000A98B0300D28B0300D78B0300CD8B030081
:1068C00008B509490948FDF7CDFF09489FED090AB8
:1068D000F7EE040A0021FFF739FFBDE8084004483D
:1068E000B7EE040AFFF79ABCFB8B03008817002061
:1068F000941800200000000010B50B4C0B490C4808
:10690000FDF7B0FF04F1C4009FED0A0A04F1700125
:10691000F2EE080AFFF71AFF94ED0F0A04F1C40023
:10692000BDE81040FFF77ABCDC170020358C03006F
:10693000881700200000000010B50B4C0B490C48D4
:10694000FDF790FF04F1D0009FED0A0A04F17C01ED
:10695000F2EE080AFFF7FAFE94ED100A04F1D000F7
:10696000BDE81040FFF75ABCDC170020668C03001E
:10697000881700200000000070B53C493C482DED10
:10698000028BFDF76FFF3B48B2EE040AFFF746FCAF
:10699000394A3A49364802F0D2FF4FF48065B0EEEA
:1069A000408A00240F200DF0F7FA044401200DF076
:1069B00093F8013DF6D1002C2E489FED310AB8BF67
:1069C0003F34FFF72BFC2C4A2C49294802F0B7FF33
:1069D000A411F0EE408A4FF4806600250F200DF0E0
:1069E000DBFA054401200DF077F8013EF6D1002DC9
:1069F000B8BF3F35A4EBA51407EE904A38EE688A7D
:106A0000F8EEE77AAB1187EE887A1E4C1E491848DB
:106A100007EE903AF8EEE77A84ED297AE7EE687AA5
:106A2000C4ED2A7AFDF71EFF1849114802F0B4FCA4
:106A300094ED290A0E480221FEF7F8F814490C4893
:106A400002F0AAFC94ED2A0A09480221FEF7EEF8AA
:106A500004F1AC0094ED080AFFF7E0FBBDEC028BFB
:106A60006420BDE870400DF037B800BF978C03007C
:106A70008817002088180020ED420000C98C030010
:106A800000004842DC170020D78B0300CD8B0300A9
:106A9000D28B03002DE9F84F274CE37D2DED028BBF
:106AA000002B45D0DFF8A08004F59C77002604F188
:106AB000AC0AC14694ED157ADFF890B09FED1F8ABD
:106AC000F3EE047A87EE270A5046642507EE906AB3
:106AD000F8EEE77A20EE270AFFF7A0FBFA200CF089
:106AE000FBFF174B1749C8F81C300422584601F029
:106AF000BEF8B0EE481AF0EE400A99ED070A01F030
:106B0000DCF8013D0F4989ED070AEED10136152E5B
:106B1000A7EC010ACED194ED080A01F10C00FFF7B1
:106B20007DFBBDEC028B6420BDE8F84F0CF0D4BFB8
:106B3000BDEC028BBDE8F88FDC170020CDCCCC3D3E
:106B4000000080BF7C180020741E0020E14200007D
:106B500030B50B4C85B00A2500231A4602A90095D2
:106B6000204602F051FF00231A4603A90095204653
:106B700002F04AFFDDE90201FFF71EFB05B030BD60
:106B80008817002038B5092A04460D461046D4BFA0
:106B9000052106210DF078FC23686FF34103236083
:106BA000A3689807FCD4102323600223E363A3683F
:106BB0005906FCD44FF480532364A3681A06FCD40E
:106BC000103504EB850540F2FF736B60236843F0DA
:106BD00002032360A3689B07FCD438BD08B51A4B99
:106BE0001A4ADA634722C3F8E4201948C3F8E420BC
:106BF0000021C3F8F4200422FFF7C4FF1448052243
:106C00000121FFF7BFFF134807220221FFF7BAFF58
:106C1000104809220321FFF7B5FF0F480A2200217F
:106C2000FFF7B0FF0C480B220121FFF7ABFF0A482A
:106C30000C220321FFF7A6FFBDE8084006480D22FD
:106C40000221FFF79FBF00BF001C004008030100A6
:106C5000000C00420080014100600141036843F0E4
:106C600002030360036913F0FF0FFBD17047012398
:106C70000360036913F0FF0FFBD10368DB07FCD44B
:106C8000704700000B4B93FBF0F00B4B82B29A83E2
:106C90000A4A136913F0FF0FFBD1074B41436420ED
:106CA00091FBF0F189B2D9831A6912F0FF0FFBD181
:106CB000704700BF000E2707003C004000A00141C4
:106CC00030B50B4C85B00A2500231A4602A9009561
:106CD000204602F099FE00231A4603A9009520469B
:106CE00002F092FEDDE90201FFF7CCFF05B030BDF6
:106CF0008817002070B504460D46022004210DF0CF
:106D0000C3FB164B164A9A6346221648C3F8A420C2
:106D1000FFF7ADFF0368036003461A6912F0FF0F27
:106D2000FBD103221A731A6912F0FF0FFBD11A6804
:106D300042F002021A600B4B1E461A6912F0FF0F56
:106D4000FBD120462946FFF79DFF0648FFF786FF47
:106D5000336913F0FF0FFBD170BD00BF001C004072
:106D600007030100003C00402DE9F843844D854CA9
:106D700095ED067ADFF86082834E844FF0EE007A5C
:106D8000B4EEE77AF1EE10FA4CBF4FF416404FF430
:106D90001600FDF7A9FF94F81790B9F1000F40F025
:106DA000BB809FED7B0A04F1AC00FFF737FA0121AD
:106DB00002200DF0E3FA494602200DF023FB88F88B
:106DC000009094ED0E0A7348FFF728FA94ED0F0A2D
:106DD0007148FFF723FA94ED100A7048FFF71EFA86
:106DE00094ED130A6E48FFF719FA94ED110A6D48F5
:106DF000FFF714FA94ED140A6B48FFF70FFA94EDBD
:106E0000120A6A48FFF70AFAD4E90601FFF73AFFC7
:106E100067496848012200F02AFF9FED671AF0EEEB
:106E2000400A95ED070A00F048FF6449614885ED86
:106E3000070A012200F01BFF9FED5F1AF0EE400AE7
:106E400095ED020A00F039FF5D495A4885ED020AC6
:106E5000012200F00CFF9FED581AF0EE400A95ED6C
:106E6000030A00F02AFF5749524885ED030A012220
:106E700000F0FDFE9FED501AF0EE400A95ED000A7D
:106E800000F01BFF50494B4885ED000A012200F03D
:106E9000EEFE9FED491AF0EE400A95ED010A00F072
:106EA0000CFF4A4885ED010A0BF053FA9FED421A98
:106EB000F0EE400A95ED060A00F0FFFE434885ED2E
:106EC000060A0BF043FA9FED427A4048C0EE077A7B
:106ED000C7ED007A0BF03DFAD7ED000A9FED361AA8
:106EE00060EE200A96ED000A00F0E7FED5ED027A8A
:106EF000D5ED036A86ED000A37EEA67AB6EE006A93
:106F000027EE067A77EEE67A85ED057AC5ED047A06
:106F1000BDE8F843FDF76EBF94ED177AD6ED007A21
:106F20002C48B4EEE77A94ED167AD7ED007AF1EEBC
:106F300010FA48BF0023B4EEE77AD4ED157A94ED49
:106F4000087A48BFE375F1EE10FA48BF0023B4EEAB
:106F5000E77A48BFE375F1EE10FAC8BFC4ED087ACE
:106F600094ED080AFFF75AF998F800301BB9D4E9F4
:106F70000601FFF7BFFE012388F8003021E700BFBC
:106F8000741E0020DC170020701E0020D417002083
:106F90000000000094180020A0180020AC18002069
:106FA000B8180020C4180020D0180020DC180020D9
:106FB0007C180020E1420000CDCCCC3D4C180020D4
:106FC0005818002064180020701800204C1E002063
:106FD00000007A4488180020C401002007B50E4A3A
:106FE0000E4801A902F0C5FC30B90C48022102F09C
:106FF00089FB03B05DF804FB094901982AF09EFC67
:10700000084BB0FA80F04009D8750121034802F01E
:107010000FFAFFF7A9FEECE7E28C030088170020C7
:10702000ED8C0300DC17002008B5054B1B6803B18D
:107030009847044A937A43F01003937208BD00BF47
:107040001017002000C00141394B3A4A10B51960B1
:10705000394B9A634622C3F8E820384A0446104662
:10706000FFF705FE36481368136060430123B0F54F
:10707000803F13731FDA136843F002031360034663
:107080002E4A9BB293832F4B4FF48041C3F88C1050
:10709000BFF34F8FBFF36F8F0020C3F88C1183F8BD
:1070A0006E03D960537A43F010035372136913F0DF
:1070B000FF0FFBD110BDB0F5003F05DA116843109A
:1070C00041F481711160DBE7B0F5802F06DA1168B9
:1070D000831041F4007141F00201F3E7B0F5002F95
:1070E00004DA1168C31041F44071F4E7B0F5801F71
:1070F00004DA1168031141F48061ECE7B0F5800F08
:1071000004DA1168831141F4A061E4E7B0F1807FF3
:1071100004DA1168031241F4C061DCE7B0F1806F5A
:107120004FEAA023ACDA116841F4E061D3E700BF75
:107130001017002007030100001C004000C001419F
:10714000C0D4010000E100E038B53C4D28680028BB
:1071500070D0D0E9022393426DDA426952F82300DD
:10716000002867D0D0E903329A4264DA344C354BB8
:10717000626E1A60344BA26E1A60344BE26E344871
:107180001A60FEF71DFF3348FEF71AFF2B683248DE
:10719000DA685B69314D53F82220D36892ED017AA9
:1071A000012B1BBF03F1FF33D2ED026A9FED2C6A66
:1071B00007EE903A1CBF76EEC76AF8EEE77A294BE5
:1071C00018BF86EEA76AD4ED0D7A83ED006AF6EE5D
:1071D000006AB0EE670AA7EE260AE7EE667A84ED4B
:1071E0000F0AC4ED107AFFF719F894ED100A1E4843
:1071F000FFF714F8D4F820011C491D4CFFF724FFB9
:10720000022323702378033B012B06D9284601F083
:10721000FEFF284602F022FBF4E71648FFF727FDA1
:107220000B48FEF78BFF0B48FEF788FF20780438E9
:1072300018BF012038BD0020FCE700BF981E0020C9
:10724000DC170020C40B0020CC0B0020C80B002052
:10725000001C004300200043A018002088170020D5
:10726000000000005C160020AC18002065640000DF
:107270009E1E002000C001412DE9F84F7C4C237870
:10728000022B0546A34600F0F180FDF709FEFDF74D
:1072900041FE0746002800F0E6801DB17548012137
:1072A00002F0C6F8744D2B681A69012A7DDD5B690E
:1072B00072491B68D8686FF06043984234BF800001
:1072C0004FF0FF300DF041F92B686C495B691B688A
:1072D0000646D8686FF06043984234BF80004FF094
:1072E000FF300DF032F904462A6865499368012B96
:1072F0001BBFD2ED007A92ED017ADFED626A03F1F5
:10730000FF331EBF37EE677A07EE903AF8EEE77A62
:107310004FF0000318BFC7EE276AD360884699462E
:10732000C1ED006A2968D1E902329A4280F2868072
:1073300007EE902A98ED007A91ED000AF8EEE77AD0
:10734000A7EE870AFEF778FF2B6898ED007ADA68D7
:1073500007EE902AF8EEE76AD3ED007A5B69E6EE75
:10736000877A53F82230C3ED007AFFF7EDFE00284C
:1073700064D02A681369012B5BDD002E59D0002CE4
:1073800057D0D168536953F82110C8680022904241
:107390000EDD4B6933F8123046F822308B6933F832
:1073A000123044F822300132F1E7002426469BE7F0
:1073B0004FF0020A2B68D3E9032C5B69D44553F8DC
:1073C000220014DAD0F80CE000218E4531DD42694C
:1073D00056F82130B3FBFCF322F81130826954F8DF
:1073E0002130B3FBFCF322F811300131EDE7C0F896
:1073F0001090FFF7A9FE2B68DA685B6953F822103A
:10740000C8680022904211DD4B6933F812C056F86B
:107410002230634446F822308B6933F812C054F8A6
:107420002230634444F822300132EBE70AF1010ACA
:10743000C0E72A68D3680133D36073E716B13046DA
:107440000CF082FB14B120460CF07EFB01239FED73
:107450000E0A8BF800300D4B83ED090AFEF7ECFEA7
:107460003846BDE8F88F06232370F9E70027F7E7D1
:107470009E1E002088170020981E0020140604007D
:1074800098160020000000000000FA43DC170020DE
:1074900008B50120FFF7F0FE28B9BDE80840024812
:1074A000022102F02FB908BD8817002030B5002155
:1074B0008DB01320164C0CF0A5FF0123E375FFF7E8
:1074C00053FC9620FDF710FC64200CF005FB002017
:1074D000FFF7D2FE70B10F4B0F4A1B680F4901A88E
:1074E0002AF07EF901A8FDF719FF68B14FF41600E4
:1074F000FDF7FAFB0025E575FFF736FC294613205A
:107500000CF080FF0DB030BD4FF41640F0E700BF27
:10751000DC17002014170020B5160020F28C0300A1
:1075200010B50E480E4C01F072FE0C4802F096F9B0
:107530000C4803F0B9FE23787BB1FFF7B7FF0A4987
:107540000B6801330B60094909688B42A8BF084BDF
:107550004FF000022270A8BF1A7010BD88170020DB
:107560009D1E002018170020141700206C1E0020FC
:107570009C1E0020037C13F0D00F03D0002110309C
:1075800005F0A2B97047000030B5B3B005460BA8AE
:10759000FDF7B2F818A8FDF7AFF80020FDF780FE60
:1075A000044668B325A8FDF7A7F8174A1749002332
:1075B00029A805F02BFB25A90BA8FDF739FD0BA881
:1075C000FFF7D8FF25A8FDF797F800220FA929A8F3
:1075D00005F030FA25A918A8FDF72AFD9DF870409E
:1075E0005CB1282269461CA806F044F86946284682
:1075F000FDF796FD04460028E4D00FA805F0ACFA8C
:10760000204633B030BD00BFFA8C03007019002053
:10761000F0B5314F3C7895B02CB13048022102F0E2
:1076200071F815B0F0BD2D48224603A902F0A1F96A
:107630000028F2D02A4E03992A480A252AF08AF90E
:107640002648009523462246314602F0DDF90028FF
:10765000E3D02549214800952346224602F0D4F97B
:107660000028DAD0039A214909A82AF0B9F809A814
:10767000FFF78AFF04460028CFD11D4B1D49186033
:107680001D4B0125187005A83D7006F0D1FE31682C
:1076900004A806F0A4FE04AA05A907A806F092FE15
:1076A00007AA2146134806F0EFFE0322214611489F
:1076B00006F016FF11490F4806F024FF104BDC7549
:1076C000FFF752FB214613200CF09CFE034829468D
:1076D00001F0AEFEA5E700BF9C1E00208817002029
:1076E000C00B0020B51600206C1E0020FC8C03008F
:1076F00014170020941E00209D1E00200945000044
:10770000DC17002010B5B4B00DA8FCF7F5FF1AA8DF
:10771000FCF7F2FF0020FDF7C3FD28B93248022133
:1077200001F0F0FF34B010BD2F4802F000FA00283D
:10773000F4D02D4802F0FBF90128EFD12A480022AD
:1077400001A902F016F90028E8D027A8FCF7D4FF19
:10775000264A2749264C00232BA805F057FA27A9CB
:107760000DA8FDF765FC0DA8FFF704FF1E480021DA
:1077700001F05EFE27A8FCF7BFFF002211A92BA88D
:1077800005F058F927A91AA8FDF752FC9DF87830A2
:107790002BB302A928221EA805F06CFF019802A9AC
:1077A000FDF7BEFC0028E5D00023ADF89C308DF835
:1077B0009E3002AA0123214627A805F027FA40B9E6
:1077C0000C49094801F0E8FD074802A9FCF7D0FF81
:1077D000D0E727A805F026FE0028F1D0CAE711A8B7
:1077E00005F0BAF99EE700BF88170020FA8C030065
:1077F00070190020018D030010B5B4B00DA8FCF77E
:107800007BFF1AA8FCF778FF0020FDF749FD28B997
:107810002D48022101F076FF34B010BD2A4802F055
:1078200086F900283ED1294B019327A8FCF764FF75
:10783000274A2849244C00232BA805F0E7F927A95B
:107840000DA8FDF7F5FB0DA8FFF794FE1E480021DB
:1078500001F0EEFD27A8FCF74FFF002211A92BA88D
:1078600005F0E8F827A91AA8FDF7E2FB9DF87830A3
:107870002BB302A928221EA805F0FCFE019802A93C
:10788000FDF74EFC0028E5D002A9204601F07CFD62
:107890002046114901F080FD25990A222046FDF776
:1078A000C1F8D7E7084802F042F90128B0D10648EC
:1078B000002201A902F05DF80028B6D1A8E711A8BE
:1078C00005F04AF9A8E700BF88170020158D0300CE
:1078D000FA8C030070190020128D030073B5364D29
:1078E000364C374E28460CF033FE224635492846A2
:1078F0000CF024FE3448354D03F040FD34480AF0C6
:107900005FFB09230093082206230121284606F085
:10791000EAFA22462F4928460CF010FE4FF4CA72AC
:107920002D492E482E4D06F0DBFE2E49084604F068
:1079300009FE2C490122284604F0E2FA22462A498F
:1079400028460CF0FBFD294807F0B0FA284B2948DF
:107950000025DD71A3F8445483F84654FCF7CCFEAF
:10796000254A264B1268DA60254A1268C3F85C275C
:107970002946304603F0ECFC3046224E224922468E
:107980000CF0DCFD2A4629463046204D03F04EFC23
:1079900022461F4930460CF0D1FD284601F0C0FBBD
:1079A0001C49224628460CF0C9FD1B48294602B056
:1079B000BDE8704002F034BE9C160020000000209C
:1079C0001817002069460100CC160020A01E0020D8
:1079D0004C1E0020F1DC000000A00300301E00203F
:1079E0000C1E0020241E0020A9420000B01E002012
:1079F00070190020D81D0020B8010020C801002007
:107A00006C1E002068160020E1430000881700204B
:107A1000C943000085910000D817002000B55D48DB
:107A2000EBB006F051F95B4806F096F9142159487D
:107A300006F080FA4FF41640FDF756F901211320A5
:107A40000CF09CFC002113200CF0DCFC5249534844
:107A5000012204F069FA524B524A53480093002124
:107A6000524B07F035FA524B524A4F4800930021CF
:107A7000514B07F043FA514804F0ADFA4FF400734C
:107A8000420A0021484807F02CFA0122002146480A
:107A900007F02EFA444807F03BFA00233F490093D1
:107AA00001224748FCF734FE464B1870464805AAA9
:107AB0004369016906F08DFE444B4FF4CA7205A973
:107AC000184628F03BFE424AD0F89011914204D06B
:107AD00040494FF4CA7228F031FE76213E4803F047
:107AE000FFFE00233D4A3E4840210AF073FADFEDD5
:107AF0003D0A9FED3D0A3A480AF030F9FFF76EF86B
:107B00003A480A21FFF7F6F83948002106F076FFD7
:107B10003749384801F04DFB3549364801F058FBEC
:107B20003549344801F067FB344802F083FD0146D3
:107B3000304801F060FB3249304802F07FFD3149A6
:107B4000314803F08FFB31492F4803F0ABFB2E483F
:107B5000642103F04FFB2C492D4803F0CDFB0C2092
:107B60000CF076F92B4806F02FFD2B4A2B4903A881
:107B700006F072FA03A9274806F034FC4FF4160009
:107B8000FDF7B2F8234905A806F052FC6BB05DF88A
:107B900004FB00BFA01E0020609D03000C1E0020FF
:107BA000318D0300288D0300B01E0020198D0300C5
:107BB000D54500009945000079450000101E0020C1
:107BC00070190020481E0020301E0020DC17002005
:107BD000A5A555AA14000020CC1600209020002056
:107BE0004C1E0020CDCC4C40CDCCCC3D804F120063
:107BF000F026002088170020BC010020D8170020A4
:107C0000AB420000358D030068160020696D00004E
:107C100018170020941E00203C8D0300458D0300A2
:107C200007EE900A91ED020AF8EEE77A77EEC07A55
:107C300091ED010A87EE800A704790ED017AD0ED50
:107C4000027AE7EE007AFDEEE77A17EE900A80F30B
:107C50001000704790ED017AD0ED027AE7EE007ADD
:107C6000FDEEE77A17EE900A80F310007047012AC4
:107C70002DE9F04180460D46164610DC91F90000D2
:107C8000C04707EE900A95ED027AF8EEE77A77EEB4
:107C9000C77A95ED017A87EE870ABDE8F081002763
:107CA0003C4695F90000C0470137BE420444F8D174
:107CB00094FBF6F307EE903AE5E7FFEE007AB4EEB8
:107CC000670AF1EE10FA1FBFF7EE007A61EE200AA4
:107CD00077EEC17AE7EE800AB0EE600A70470020C6
:107CE000704700207047000038B50D461146054A20
:107CF00010680268146B2A46A04780F00100C0B2E9
:107D000038BD00BFB80B002038B50D461146054AF6
:107D100010680268946B2A46A04780F00100C0B248
:107D200038BD00BFB80B002038B50C4615460329F6
:107D30001AD8DFE801F0020912160C4B1868036824
:107D40009B6A9847204638BD084B1868043004F0F9
:107D500042F9400A28600024F4E74FF400731380CE
:107D6000F9E708231360F6E70424EBE7B80B0020DB
:107D700042884378007843EA022340EA03207047B0
:107D80000B0A017043700B0C090E8370C1707047B1
:107D9000024400F8011B9042FBD1704710B5024429
:107DA00010F8013B11F8014B9042A3EB040301D002
:107DB000002BF5D0184610BD43690239023B8B42B7
:107DC00083BF4389806A01FB03000020704702687B
:107DD0004AB1134613F8011B20290BD93A29F9D1CE
:107DE000911C8B4202D04FF0FF3070471278302A3E
:107DF000F9D103600020704701380A4411F8013BB3
:107E000000F8013F9142F9D1704737B5012300F1E5
:107E10003001C26A019104464078FFF775FF0546BC
:107E200090B9236AE070E06AA269C31A934208D24B
:107E3000A3780199022B04D1024401236078FFF753
:107E400063FF284603B030BD0125FAE738B5C36AA1
:107E50008B4204460D4614D0C3786BB92A4660782D
:107E6000012304F13001FFF73FFF00281CBF4FF052
:107E7000FF350120E56238BDFFF7C7FF0028FAD1C2
:107E8000ECE70020F7E7000038B50023C3704FF09F
:107E9000FF33C3620546FFF7D9FF044618BB95F8C8
:107EA0002F2295F82E3243EA02234AF655229342B6
:107EB0001BD195F83030EB2B03D01833DBB2012BFC
:107EC00015D80C49032205F16600FFF767FF40B1A2
:107ED0000949052205F18200FFF760FF002818BF5D
:107EE0000224204638BD0424FBE70324F9E70224DA
:107EF000F7E700BF40C0030044C003002DE9F04392
:107F0000002385B00B600F461546FFF760FF061E85
:107F1000C0F23A81A44B53F82640002C00F0368181
:107F20003C60237805F0FE056BB16078FFF7D7FE63
:107F3000C70708D41DB110F0040500D00A25284653
:107F400005B0BDE8F0830023F0B223706070FFF746
:107F5000C8FEC10700F11C810DB14207EED400211B
:107F60002046FFF791FF022840F0EE806E4604F5B0
:107F7000FB7104F23627354611F8040C10B108469F
:107F8000FFF7F6FE10318F4245F8040BF4D10025BF
:107F900056F8048BB8F1000F00F0CD804146204622
:107FA000FFF772FF012800F2C78094F83C2094F894
:107FB0003B3043EA0223B3F5007F40F0C98094F8D8
:107FC000470094F8466056EA002604D104F15400B4
:107FD000FFF7CEFE064694F84050A6616B1E012BBB
:107FE000A57000F2B58094F83D90A4F80A904B4635
:107FF000002B00F0AD8009F1FF3313EA090F40F0C8
:10800000A78094F8423094F8417047EA03273B0771
:1080100039B2278140F09C8094F8440094F84330B2
:1080200053EA002300F09980184694F83F3094F802
:108030003E2052EA032200F08B8006FB05FE02EB95
:10804000171CF4446045C0F08380A0EB0C034B4543
:10805000B3FBF9F07CD3554B984279D84FF6F573C2
:10806000984240F297804FF00309851C42440CEB84
:108070000803B9F1030F6561C4F81C802262A36292
:1080800070D194F85B2094F85A3043EA02231943E4
:1080900009B200295CD104F15C00FFF769FEAD0074
:1080A000606205F2FF15B6EB552F51D34FF0FF3349
:1080B000C4E90333B9F1030F4FF08003237130D1CA
:1080C00094F8612094F8603043EA0223012B28D110
:1080D00008F101012046FFF7B9FE10BB94F82F22EA
:1080E00094F82E32207143EA02234AF65522934235
:1080F00017D104F13000FFF73BFE2D4B984210D111
:1081000004F50570FFF734FE2A4B984209D104F5B7
:108110000670FFF72DFE206104F50770FFF728FEBB
:10812000E060254A84F80090138801339BB21380E5
:10813000E380002503E703200135042D7FF428AFF9
:10814000042805D10125FAE60428FBD0012801D92D
:108150000D25F4E64FF0000827E704F15000FFF783
:1081600007FE62E7002FF3D0B9F1020F4FEA450393
:1081700018BF5B19724418BF05F0010562620CBF9D
:108180001D4605EB53058CE70B25D8E60C25D6E6F6
:108190000325D4E640F6F57948458CBF4FF0020937
:1081A0004FF0010961E700BF141F0020F5FFFF0F2A
:1081B0005252614172724161181F002001292DE95C
:1081C000F04706460C46174673D943698B4270D96F
:1081D0000378022B3FD0032B50D0012B69D101EB48
:1081E0005108016A01EB5821FFF730FE054638BB04
:1081F00006F1300908F1010AC8F3080814F0010477
:108200001FBF19F8083003F00F023B0103F0F00321
:1082100014BF1343FBB209F80830316A0123F3702D
:1082200001EB5A213046FFF711FE054640B9CAF36B
:10823000080A44B1C7F3071709F80A700123F3705D
:108240002846BDE8F08719F80A30C7F3032723F062
:108250000F031F43F0E7016A01EB1421FFF7F6FD5E
:1082600005460028ECD1640006F1300304F4FF74E5
:1082700018191F55C7F307274770DFE7016A01EB9D
:10828000D411FFF7E3FD05460028D9D1A40006F17B
:10829000300304F4FE741C442046FFF769FD27F008
:1082A000704700F0704047EA00012046FFF768FD84
:1082B000C4E70225C4E70129F8B505460C4652D9A2
:1082C000436999424FD20378022B29D0032B38D02F
:1082D000012B48D101EB5106016A01EB5621FFF752
:1082E000B5FD10B14FF0FF30F8BD771C296AC6F319
:1082F00008062E4401EB5721284696F83060FFF718
:10830000A5FD0028EED1C7F308073D44E30795F823
:10831000300046EA00204CBF0009C0F30B00E3E741
:10832000016A01EB1421FFF791FD0028DAD1640006
:10833000303504F4FF742B19285D5B7840EA032084
:10834000D2E7016A01EBD411FFF780FD0028C9D103
:10835000A40005F1300004F4FE742044FFF708FD8A
:1083600020F07040C0E70120BEE72DE9F04105682C
:1083700080460F4649B9EE68C6B16B69B34298BFF3
:1083800001262B69A3B9002406E02846FFF793FFD6
:108390000128044603D801242046BDE8F081421C90
:1083A00051D06B698342F7D83E46EAE70126E8E7F9
:1083B000BE4215D16B69D8F80000741CA34298BF67
:1083C00002242146FFF777FF0128E4D0431C3AD06E
:1083D000D8B1EB68012B03D96A69934238BF1E46B6
:1083E00034466B690134A34202D8012ECBD9022452
:1083F000D8F800002146FFF75EFF40B10128CAD03F
:10840000013020D0B442ECD1BDE7002CE8D04FF0D1
:10841000FF3221462846FFF7D1FE90B957B9D5E97A
:108420000432023A9342EC6010D92B7943F00103F5
:108430002B71B1E7224639462846FFF7BFFE0028D8
:10844000EDD00128A7D14FF0FF34A5E7013B2B6108
:10845000EBE7826838B500230568036104469AB9E2
:108460002B78022B01D96B6A6BB92B890BB90220CF
:1084700038BD6B6AA361A3696261002BF7D0303508
:10848000E5610020F4E71A466B8963B9114620685C
:10849000FFF711FF431C02460BD00128E7D96B6997
:1084A0009842F3D3E3E711462846FFF785FCA06125
:1084B000E1E70120DCE770B5C3780446002B44D126
:1084C0002378032B38D12679012E35D104F13005DC
:1084D0004FF4007200212846FFF75AFC552384F818
:1084E0002E32AA2384F82F3252234122722184F89B
:1084F000303084F83130612384F8323084F833200E
:1085000084F8162284F8173284F8141284F81512AD
:1085100004F506702169FFF733FCE16804F5077084
:10852000FFF72EFCE269607801323346E2622946A9
:10853000FFF7EAFB00232371002260781146FFF762
:10854000F3FB003818BF012003E0FFF75EFC0028B2
:10855000B6D070BD2DE9F84F0369046803F1200A15
:10856000BAF5001F24BF002383618369054688464E
:1085700073B1CAF30809B9F1000F4AD14169013357
:10858000836139B92389B3EB5A1F42D80023AB6109
:1085900004200BE06789013F17EA5A2739D12046AA
:1085A000FFF789FE0128064602D80220BDE8F88FB1
:1085B000421C01D10120F9E76369834223D8B8F155
:1085C000000FE3D069692846FFF7CFFE0646002872
:1085D00037D00128E9D0431CECD0E37803BB314607
:1085E0002046FFF7E9FB04F1300B8046E0624FF4D0
:1085F000007200215846FFF7CBFB63899F4215D3D9
:1086000063899F42D6D16E6131462046FFF7D4FB85
:10861000A86130344C44C5F810A0EC610020C5E7D7
:108620002046FFF7F2FB0028C4D1D8E76078012389
:1086300008EB07025946FFF767FB0028E0D1013736
:10864000DBE70720B2E738B5056804460420A169D6
:1086500009B9A8B11CE02846FFF7F8FBC0B9E369E7
:108660001A78C2B1DB7AE52A03F03F03A37109D07F
:108670002E2A07D00F2B05D023F02003082B01D181
:10868000002038BD00212046FFF764FF0028DED01F
:108690000023A361F5E70420FAE738B5056804462E
:1086A000FFF7D7FE70B9A1692846FFF7CFFB48B99D
:1086B000E3691B78E52B08D03BB101212046FFF789
:1086C00049FFEFE7042808BF072038BD1FB5CDE9F3
:1086D000001003A814460391FFF779FB002815DB6F
:1086E0000B4B53F820200AB100211170019A0AB1F6
:1086F0000021117043F820202CB1002201A9684606
:10870000FFF7FCFB0446204604B010BD0B24FAE73B
:10871000141F002030B595B00222019002A901A8D3
:10872000FFF7ECFB0446002843D103A80B222021CD
:10873000FFF72EFB34482546019B1A781F2A1ED8C6
:108740009DF80C30E52B33D025B16B1E03AAD25C0B
:10875000202A37D0029B099309A800230B93FFF727
:1087600078FE044628BB09A8FFF76DFF002834D126
:1087700010984DB30B2203A9FFF73EFB26E05A1CCD
:1087800001921A78A2F161011929134609D8A2F1C0
:1087900020039BB21D4911F8012B6AB19342FAD113
:1087A00006E07F2A84BF831813F8803C002BF1D1A8
:1087B0000624204615B030BD0B2DF9D003AA535521
:1087C0000135B9E71D46BFE7E52303700298012391
:1087D000C370FFF770FE0446EBE70428FBD1002DC1
:1087E000E7D009A8FFF759FF04460028E1D1014668
:1087F00020221098FFF7CCFA109B0822DA7210980A
:108800000B2203A9B8E700BF7EC00300FEC003002F
:108810002DE9F04F87B00D46039003A816461C467D
:10882000FFF7D5FA0028C0F24282A34B53F820305C
:108830000BB100221A70C7B23846FFF752FAC207CE
:1088400000F13782430700F1368204AA032138463B
:10885000FFF76AFA30B9049A531EB3F5004F01D2FC
:108860001A4201D0012304935EB1944BA6F5007225
:108870009A4203D9132007B0BDE8F08F731E33422C
:10888000F8D1002C00F01982109BB3F5007FC0F0E6
:10889000148205AA01213846FFF746FA002840F065
:1088A000EC8015F008030093059B14BF4FF00009FE
:1088B0004FF03F094B4501D20E20DCE7A3EB090343
:1088C0007F2B0593F8D9B6F5813FD3D215F0020E70
:1088D0004FEA56222CD005F00701022900F0F3815F
:1088E000E80740F1F08162BB75481D0B012630F8A6
:1088F000021B09B1A94222D940F6F571B3FBF6F586
:108900008D429BBF05EB4505013502356D088CBFD7
:108910006D00033505F2FF154FF020018CBF4FF0BD
:1089200002084FF001086D0A02914FF0010BEDE1D2
:10893000E907D8D49EE75200CBE11146D0E176009A
:10894000D5E71646D8E7B8F1020F18D101984FF6CF
:10895000F571884208D9002A40F0B1817600402E96
:1089600000F20B823246BEE7019840F6F57188426C
:108970000CD8002AA0D17200802AB4D99CE7019AB1
:1089800040F6F5739A4297D84FF001084FF4007201
:1089900000212046FFF7FCF94A490B222046FFF749
:1089A0002BFA059984F80EB000230222B8F1030FC8
:1089B000E3722273CBF3072B4FF00102637418BFED
:1089C0000223B1F5803F667384F80FB02274A3745C
:1089D00055D2E174C1F307212175F82363753F2354
:1089E00000222376FF23A3766276E276494604F1DD
:1089F0001C00FFF7C5F9B8F1030F4FF0210343D175
:108A000084F845304E2384F8432084F8442084F8C9
:108A10004630294604F12400FFF7B2F9022384F816
:108A20002C30012384F83030062384F83230802340
:108A300084F84030244984F82D20292384F82E20FE
:108A400084F82F2084F8312084F8332084F84230D1
:108A5000132204F14700FFF7CFF94FF0550384F8D4
:108A6000FE316FF0550384F8FF314A460123214659
:108A70003846FFF749F9834650B30120FBE604F17D
:108A80002000FFF77DF9A8E784F829304E2384F809
:108A90002A30C5F30723E375802384F82430292383
:108AA00084F8272084F828200849A57584F8263002
:108AB000132204F12B00CEE7141F002000FEFF005C
:108AC00010C103004AC0030056C003006AC003007F
:108AD000B8F1030F41D1012309F1060221463846BE
:108AE000FFF712F94FF4007259462046FFF750F98C
:108AF0005223237063706123A37084F8E731019BD4
:108B000041227221E27084F8E41184F8E51184F8BE
:108B1000E621591E04F5F470FFF732F9022384F8B8
:108B2000EC314FF0550384F8FE316FF0550384F8B3
:108B3000FF3109F107020123214684F8EDB184F8E1
:108B4000EEB184F8EFB13846FFF7DEF8012309EB08
:108B5000030221463846FFF7D7F8109B23F4FF7233
:108B600022F0010200212046FFF712F9B8F1030FAD
:108B700054D1F8232370FF236370A370E370237133
:108B80006371A371E37123726372A3720F23E372A3
:108B9000109B5B0A0193019BAB4228BF2B462146E9
:108BA000524638469B46FFF7AFF8014600287FF44F
:108BB00064AF4FF400722046FFF7EAF8B5EB0B05FF
:108BC000DA44E8D1029BB8F1030F18BF1E46019B9F
:108BD000B34228BF33465246214638461D46FFF76A
:108BE00093F800287FF449AF761BAA44EFD1B8F17F
:108BF000030F1DD0059BB3F5803F1BD2B8F1020FC8
:108C00000CBF04230123009AB2B10022114638465A
:108C1000FFF78AF8003818BF01202CE6B8F1010FE1
:108C20005A49204618BF6FF00701FFF7A9F8AFE7D0
:108C30000C23E8E70623E6E700994FF4007220468C
:108C4000FFF7A6F8552284F8FE21AA2284F8FF2116
:108C5000009A84F8BE2184F8C121059A84F8C231B3
:108C60004A4443F6C163B2FBF3F2FE2384F8C331F6
:108C7000930843F03F03012584F8C43184F8C521EB
:108C8000494604F5E37084F8BF5184F8C051FFF7FA
:108C900077F8059904F5E570FFF772F8009A2B460E
:108CA00021463846FFF730F80028AED0E5E60B2025
:108CB000E1E50320DFE50A20DDE51120DBE5BEF17B
:108CC000000F3FF4F9AD002A7FF437AE30485D0C59
:108CD000012230F8021B19B1A9427FF62CAE002107
:108CE000B3FBF2F02B4E8500A0F57F40F63805F27D
:108CF0000725B0424FEA55253FF6DEAD16460A4637
:108D0000002102914FF0200B4FF003080299DDF88B
:108D100010C00BEB090A481950440CF1FF31014413
:108D2000CCF1000C01EA0C0CC9EB0611ACEB000C09
:108D3000B8F1030F084406BFE344E24465448342AC
:108D4000FFF4BAAD0299591AA1EB0B01B8F1030F68
:108D5000A1EB0501B1FBF6F101917FF4F4AD0198AF
:108D60004FF6F57188423FF611AE002A7FF4A4ADAC
:108D7000012E7FF6A1AD7208A5E7BEF1000FA5D1C7
:108D8000802E3FF699AD3246B6E500BFF8FFFF00F2
:108D90001EC10300FFFFFE0FF8B5104E04460D463E
:108DA00004F10C0731460AF068FD314638460AF0F6
:108DB00064FD0B49E56120460AF072FD31463846F4
:108DC0000AF06EFD28460AF0BBFE0023A061C4E94C
:108DD0000A33C4E908332046F8BD00BF31C103009F
:108DE0002CC1030010B50446806908B10AF0AAFE40
:108DF00004F10C000AF0FCFC20460AF0F9FC2046C5
:108E000010BD0023C0E90A33C0E908337047836A04
:108E100030B51BB9C362FF22104630BD426A81697A
:108E2000C569541C44628A5C94FBF5F1013B05FB67
:108E3000114141628362816803685C18A342EBD0F0
:108E400013F8011B9142F9D1C16A0139C162F5E7FA
:108E5000836A1BB18269436AD05C7047FF20704708
:108E60002DE9F843D0F82C800646B8F1000F18D051
:108E700000240C700D46571EA146A7420ADD30465D
:108E8000FFF7C5FFF36A98450DD12870013405F846
:108E9000019FF2E7F36A984505D13046FFF7B7FF27
:108EA000F8E74FF0FF342046BDE8F88310B5C368FB
:108EB00042691A44934205D013F8014B8C42F9D110
:108EC000002010BD826AC3699A421BDA036A826974
:108ED0005C1C0462D154D0E9072494FBF2F302FB3A
:108EE00013430362836A82680133836203689C18B8
:108EF000A342E5D013F8012B8A42F9D1C26A0132AC
:108F0000C262F5E74FF0FF30DBE7C06A70472DE93A
:108F1000F84FD0F82C9006460D469046B9F1000F58
:108F200017D009B100220A7000245F1E05F1010A62
:108F3000A346A7420FDD3046FFF769FFF36A994564
:108F400009D1404507D015B128550AF804B00134BD
:108F5000EFE74FF0FF342046BDE8F88FF0B5866AA2
:108F600000239E4217DD426AC5691A4492FBF5F45C
:108F700005FB14228469A55C8D4208D002688468D0
:108F80001444944205D012F8017BBD42F9D1184631
:108F9000F0BD0133E5E74FF0FF33F8E7C36AF0B502
:108FA000CBB1876A00239F4215DD016882688D1866
:108FB000A9420ED0426AC66911F801CB1A4492FB4D
:108FC000F6F406FB14228469A25C6245F0D11846CF
:108FD000F0BD0133E7E74FF0FF33F8E7C36AF0B5C0
:108FE000FBB1D0F828E000220123964512DD456A46
:108FF000D0F81CC004688668154495FBFCF70CFB90
:10900000175587697D5D2644B44205D014F8017B6D
:10901000AF42F9D11846F0BDA94208BF0133013271
:10902000E3E74FF0FF33F5E770B5C66A044656B183
:1090300000252046FFF7EBFEE36A9E4205F101059D
:10904000F7D0284670BD4FF0FF35FAE738B5054632
:10905000016008460C4627F0C5FA023C04806860AF
:10906000284638BD03684268023B9BB213704268D1
:109070001B0A53707047F0B505464068002835D08C
:1090800043780278002442EA03231A0401D48B4275
:109090000CDAC3F30E0202322B681444A34226DD1D
:1090A0000319025D5B7842EA0323EEE75A1A022AAB
:1090B000D8BF19466FEA41426FEA524202556868CA
:1090C000204496B2C2F3072242706F68A01C8B4204
:1090D00038440BDD9A1E531AC6F30E0202321444B2
:1090E0009BB23B556A6814441B0A6370F0BD0020B4
:1090F000FCE743685BB102680139C91A8A4206D3AA
:1091000058565A5C0028BCBF02F07F025A54704780
:1091100010B541680446FFF7ECFF204610BD000083
:1091200038B5044630200AF009FD4FF400610546C9
:10913000FFF732FE256008200AF000FD4FF40071B1
:109140000546FFF783FF4FF4807222840A4A656068
:1091500004F11F01D16004F12001516204F12101E9
:10916000D163064A1460064AE26000232363A362C7
:10917000E3775360204638BDD00B00201C1F002031
:10918000600C002038B50446303027F033FA2568EB
:109190002DB12846FFF726FE28460AF0D3FC656865
:1091A0002DB12846FFF7B4FF28460AF0CBFC204635
:1091B00038BD61B1836A03F10C0240F822105A1CD9
:1091C00003448262002283F84420036B836070476B
:1091D000826A002A30B50CDD00F13004002354F817
:1091E000045B8D4202D18160012030BD01339A427F
:1091F000F5D10020F9E719B1C36813B9C1604B601C
:1092000070471A465B68002BFBD15160F7E7F7B552
:10921000044600F1440700F130060025A36AAB4282
:109220001DDD17F8013BBBB9306803681B6998471F
:10923000002811DD3068A06003685B699847E37F10
:10924000C1B22BB1A068019103681B6898470199CE
:109250002068FFF72BFEE7E701350436DEE72846F6
:1092600003B0F0BD2DE9F043064685B0414901A8A1
:109270000AF003FBF568002D79D006F1100101A872
:109280000AF00EFB01A80AF049FB96F8213013B949
:1092900001A80AF037FB00272B68DC59002C63D0AB
:1092A000204629F0ABFA039B98425BD123783F2BF1
:1092B0004AD1002101A80AF017FB0378672B39D0A7
:1092C000002101A80AF010FB0478A4F173035C42AA
:1092D0005C41002101A80AF007FB0378472B2BD142
:1092E00001244FF00108039BA3422FD996F82130A7
:1092F0005BB1214601A80AF0F7FA2B680278DB5926
:109300001B5D9A4218BF4FF0000896F821307BB9D8
:10931000214601A80AF0E8FA2B68DB598146185D5E
:109320002AF056FA99F80030834218BF4FF000082F
:109330000134D8E70124CCE7002101A80AF0D4FACF
:109340000378532BCDD1CBE70024CAE7B8F1000F47
:1093500008D02B681F4401A80AF04AFA384605B025
:10936000BDE8F083183797E76D68002D93D100278B
:10937000F1E700BF31C1030090F820301BB98068CD
:1093800008B109F067BB704790F820301BB98068BE
:1093900008B109F058BB704790F820301BB98068BD
:1093A00008B109F050BB704790F820303BB9806895
:1093B00028B111B1024909F046BB0249FBE77047E9
:1093C000ED8C030077C1030090F820301BB9806852
:1093D00008B109F090BB704790F820301BB9806845
:1093E00008B109F094BB704790F8202038B50C46BE
:1093F0006AB985685DB110EE100A25F02BFC41ECCE
:10940000100B21462846BDE8384009F047BC38BD5E
:1094100090F820301BB9806808B109F03FBC704754
:1094200090F820301BB9806808B109F07DBB704707
:1094300090F8203043B9806830B111B1034909F088
:1094400011BB024909F0FFBA704700BF30C10300E9
:1094500070B50D4688B0A649044601A80AF00DFA79
:10946000AB68002B04DB626A934201D000262EE039
:109470002E79062E07D0207C2AF0AAF9472810D191
:10948000636A002BF2DCEB68002BEFD0062EEDD8E0
:10949000DFE816F00D0039006B00A800CF000701CF
:1094A00036015328EFD1636A012BDFD1EBE7616A04
:1094B00049B92046FFF7BCFF2046E968FFF764FF83
:1094C0002046FFF759FF636A012B06D0012601A849
:1094D0000AF08EF9304608B070BD20680A232C22AD
:1094E00004A9FFF714FD286920B104A929F0A0F907
:1094F0000028BBD0E86804A928F02CFA01212046F6
:10950000FFF796FFE2E7616A59B92046FFF790FF3F
:10951000EB68204619680A22FFF756FF2046FFF73E
:109520002BFF636A012BD1D10A232C2204A92068C6
:10953000FFF7EDFC04A901A80AF0B2F92B692BB9D9
:1095400001A8ED680AF012FA2860D7E701A80AF02E
:109550000DFA2B691B68984288DB01A80AF006FA0D
:109560002B695B689842EBDD80E7616A61B9204650
:10957000FFF75EFFEB68204693ED000A0221FFF73C
:1095800033FF2046FFF7F8FE636A012B9ED10A23C2
:109590002C2204A92068FFF7BAFC04A901A80AF04C
:1095A0007FF92B6933B901A8ED680AF0F1F985ED6F
:1095B000000AA3E701A80AF0EBF92B69D3ED007AC2
:1095C000B4EEE70AF1EE10FA3FF550AF01A80AF049
:1095D000DFF92B69D3ED017AB4EEE70AF1EE10FA68
:1095E000E1DD43E7616A11BB2046FFF721FF636AB3
:1095F0004BB9EB68204693ED000B0221FFF708FF03
:109600002046FFF7B9FE666A012E7FF45FAF0A239A
:109610002C2204A92068FFF77AFC04A901A80AF00B
:109620003FF9EA683349019828F0FAF84FE7012139
:10963000DAE7616A51BB2046FFF7FAFE636A3BB97D
:10964000EB6820461978FFF7AFFE2046FFF794FE3F
:10965000636A012B7FF43AAF0A232C2204A9206805
:10966000FFF755FC04A901A80AF01AF994F8213073
:1096700013B901A80AF046F91F4901A80AF022F916
:10968000044628B1EB6801241C701FE70121D2E7D2
:109690001A4901A80AF016F900283FF4E7AEEB6872
:1096A000F2E7616A09BB2046FFF7C2FE636A43B96D
:1096B000EB68204619780A22FFF7B2FE2046FFF732
:1096C0005BFE666A012E7FF401AF0A232C2204A9F7
:1096D0002068FFF71CFC04A901A80AF0E1F801A822
:1096E0000AF044F9EB681870F1E60121DBE700BFEE
:1096F00031C1030032C10300ED8C030077C10300C8
:109700009847E3E690F82030C16223B9806810B131
:10971000014909F0A7B9704736C103002DE9F843A4
:10972000254C2068436A002B04DDBDE8F843022184
:10973000FFF7E8BF0021FFF77BFE2368DD68002DFF
:1097400038D01E4FDFF87880DFF8789000262B683D
:10975000995961B30B7820683F2B1AD14146FFF726
:109760001BFE2B68206899590131FFF715FE206810
:109770003946FFF711FE2B68206833445969FBF71F
:1097800071F820684946FFF707FE2B682068995951
:109790000131FFF701FE20683946FFF7FDFD2B6818
:1097A0002068334418365969FBF75CF8CFE76D68D9
:1097B000002DCBD1BDE8F8831C1F0020C389030016
:1097C00028990300A608040038B5204C2068436A95
:1097D000012B04D0BDE838400221FFF793BF0021E0
:1097E000FFF726FE20680A2300F110012C220068F2
:1097F000FFF78DFB2068FFF735FD01680B783F2BE5
:10980000054616D112492068FFF7C6FD2968206871
:109810000131FFF7C1FD0F492068FFF7BDFD696900
:109820002068FBF71FF80C492068FFF7B5FD296891
:1098300001312068FFF7B0FD20680649FFF7ACFD55
:1098400069692068FBF70EF838BD00BF1C1F0020B7
:1098500028990300C3890300A608040070B50446D4
:109860000068FFF752FB002837DD264656F8100B3C
:10987000FFF74BFB0F2305462C2220683146FFF7EC
:1098800046FB237CD3B12068FFF73FFBA84217D0EB
:10989000002363622046FFF7E5FC0146B0B90121D1
:1098A0002046FFF72FFF2068FFF72FFBA84202D1C9
:1098B0002068FFF7B9FB6068FFF7D4FB01200DE0DB
:1098C00020682C21FFF78AFB6062E3E72046FFF760
:1098D000BFFD0028E7D10221E2E7002070BD37B5C7
:1098E0000446006801911546FFF78BFA019920465E
:1098F000FFF752FD2068FFF708FB30B92046FFF75D
:1099000086FC002DF6D0A847F4E7D4E90005FFF760
:1099100045FB411C2846FFF7AEFB054628B92068E9
:10992000FFF782FB284603B030BD24682046FFF7CE
:1099300035FB2946421C2046FFF792FAF2E710B5A4
:1099400086B00446FFF7CBFF0146019003A809F05B
:1099500094FF03A80AF01CF8019960688DED000AD5
:10996000FFF7C7FB03A809F043FF9DED000A06B00F
:1099700010BD2DE9F34105460E4600682C2117461F
:10998000FFF7ECFA431C03D1002002B0BDE8F081E0
:10999000431C194668680193FFF76DFB019B30601B
:1099A00001462C222868FFF7B2FA2868FFF750FA20
:1099B0002C2802D12868FFF72AFA3368002BE3D05D
:1099C0000FB90120E1E795F8214074B9306828F01B
:1099D00015FFA04209D956F8248098F8000029F014
:1099E000F7FE013488F80000F0E73168019138464D
:1099F00028F01EFF019904460028E2D16868FFF7AD
:109A000078FB34602046C0E72DE9F3410E46174647
:109A10006946002280461D46FFF7ABFF044620B989
:109A20000024204602B0BDE8F081089B0098102B6E
:109A30000CBF0949094901AA27F0F2FE0099D8F89C
:109A40000400FFF756FB019BBB4201DBAB4201DD8B
:109A5000002DE5D13360E4E739C10300334504004C
:109A60002DE9F3410E4617466946002280461D4601
:109A7000FFF77FFF044620B90024204602B0BDE86E
:109A8000F081089B0098102B0CBF0949094901AAD5
:109A900027F0C6FE0099D8F80400FFF72AFB019BC7
:109AA000BB4201D3AB4201D9002DE5D13360E4E7DD
:109AB00039C103003CC1030070B52DED048B84B0A7
:109AC0000D46002269460646B0EE409AF0EE608AE6
:109AD000FFF74FFF044600B3009901A809F0CDFE3F
